:100000000C9462000C948A000C948A000C948A0070
:100010000C948A000C948A000C948A000C948A0038
:100020000C948A000C948A000C948A000C94470566
:100030000C948A000C948A000C948A000C948A0018
:100040000C94FD040C948A000C948A000C948A0091
:100050000C948A000C948A000C948A000C948A00F8
:100060000C948A000C948A000000000024002700F1
:100070002A0000000000250028002B0000000000DE
:1000800023002600290004040404040404040202DA
:100090000202020203030303030301020408102007
:1000A0004080010204081020010204081020000012
:1000B0000008000201000003040700000000000027
:1000C0000000120811241FBECFEFD8E0DEBFCDBF65
:1000D00011E0A0E0B1E0E6E3F2E102C005900D928C
:1000E000A837B107D9F722E0A8E7B1E001C01D9217
:1000F000AD33B207E1F710E0C2E6D0E004C02197CB
:10010000FE010E941309C136D107C9F70E940306F8
:100110000C9419090C940000CF92DF92EF92FF9299
:10012000DC01A03282E0B807D4F5A53BB10514F09C
:10013000A4EBB0E04091230228E830E0241B310911
:1001400047FD3395220F331F220F331F6901330FF1
:10015000EE08FF084091240228E532E0241B310913
:1001600047FD3395220F331F220F331F032E000C40
:10017000440B550B2C193D094E095F09B7FF02C00E
:10018000B0E0A0E00E94CE0824EB30E040E050E078
:100190000E94A408C20ED31EE41EF51ED601E091F3
:1001A0002202EC3080F52091230288E890E0821B47
:1001B000910927FD9395880F991F880F991FA817FC
:1001C000B90784F02091240288E592E0821B91090E
:1001D00027FD9395880F991F880F991FA817B907B6
:1001E0000CF4CD010297880F991F4FB7F8942E2F6A
:1001F00030E0F901EE0FFF1FE20FF31FE250FE4F58
:10020000928381834FBFFF90EF90DF90CF9008954E
:1002100096E0899FD0011124A157BE4F90967C9300
:100220006E935F9791E091969C939197E091FC017A
:10023000F091FD019091FB01992339F0309751F035
:10024000811108C08091AB010994309719F05C9638
:100250008C91FACF0895833081F028F4813099F0A1
:100260008230A9F008958730A9F08830C9F0843031
:10027000B1F4809180008F7D03C0809180008F77E2
:1002800080938000089584B58F7784BD089584B5E8
:100290008F7DFBCF8091B0008F778093B000089561
:1002A0008091B0008F7DF9CFCF93DF93282F30E07E
:1002B000F901E255FF4F8491F901E656FF4FD491C1
:1002C000F901EA57FF4FC491CC23A1F081110E949C
:1002D0002B01EC2FF0E0EE0FFF1FE458FF4FA5912C
:1002E000B491EC91ED2381E090E009F480E0DF919E
:1002F000CF91089580E090E0FACF1F93CF93DF93E2
:10030000282F30E0F901E255FF4F8491F901E656BC
:10031000FF4FD491F901EA57FF4FC491CC23A9F0C4
:10032000162F81110E942B01EC2FF0E0EE0FFF1F22
:10033000EE58FF4FA591B4918FB7F894EC9111113D
:1003400008C0D095DE23DC938FBFDF91CF911F9142
:100350000895DE2BF8CFCF93DF9390E0FC01E656B3
:10036000FF4F24918A579F4FFC0184918823C9F045
:1003700090E0880F991FFC01E859FF4FA591B491B7
:10038000FC01EE58FF4FC591D49161110DC09FB78C
:10039000F8948C91209582238C938881282328833C
:1003A0009FBFDF91CF910895623051F49FB7F894C9
:1003B0003C91822F809583238C93E8812E2BEFCF65
:1003C0008FB7F894EC912E2B2C938FBFEACF3FB7C9
:1003D000F89480918B0190918C01A0918D01B09146
:1003E0008E0126B5A89B05C02F3F19F00196A11DCF
:1003F000B11D3FBFBA2FA92F982F8827BC01CD016F
:10040000620F711D811D911D42E0660F771F881FCD
:10041000991F4A95D1F708958F929F92AF92BF92FC
:10042000CF92DF92EF92FF920E94E7014B015C01B5
:1004300083E0C82ED12CE12CF12C0E94E701681931
:1004400079098A099B09683E734081059105A8F3E3
:1004500021E0C21AD108E108F10888EE880E83E095
:10046000981EA11CB11CC114D104E104F10429F7A8
:10047000FF90EF90DF90CF90BF90AF909F908F90C4
:1004800008952FB7F8946091870170918801809149
:10049000890190918A012FBF08950F931F93CF93E5
:1004A000DF93C82FD62F86E0C89FF0011124E157B3
:1004B000FE4F11A2878D90A181309105F1F058F087
:1004C00082309105F1F1039709F440C0DF91CF919B
:1004D0001F910F9108956623C9F361E070E08C2F9E
:1004E0000E9408010E9441026093E7017093E801B5
:1004F0008093E9019093EA01E9CF0E9441020091C3
:10050000E7011091E8012091E9013091EA01AB0186
:10051000BC01401B510B620B730B8091F901909150
:10052000FA01B0E0A0E084179507A607B70748F4E2
:1005300062E070E08C2FDF91CF911F910F910C94AE
:10054000080163E070E0D111C1CFF4CF70E060E04A
:10055000F1CF862F642F0C94AB01862F642F0C945F
:100560007D01862F0C945401AF92BF92CF92DF92FF
:10057000EF92FF920F931F93CF93DF936C017B0158
:100580008B01040F151FEB015E01AE18BF08C017E9
:10059000D10759F06991D601ED91FC910190F0815C
:1005A000E02DC6010995892B79F7C501DF91CF911F
:1005B0001F910F91FF90EF90DF90CF90BF90AF9081
:1005C0000895089590E080E00895FC0101900020D6
:1005D000E9F73197AF01481B590BBC0185E292E066
:1005E0000C94B402CF93DF93EC0160E08E810E9403
:1005F0007D0161E08E810E947D0160E08E810E941C
:100600007D018BE891E00197F1F7DF91CF9108959B
:10061000CF92DF92EF92FF920F931F93CF93DF93CE
:100620006C017C0187E0E80EF11CD0E0C0E0062FF1
:1006300010E0B8010C2E02C0759567950A94E2F798
:100640006170F70181917F010E947D012196C43084
:10065000D10579F7C601DF91CF911F910F91FF90DE
:10066000EF90DF90CF900C94F202CF92DF92EF9256
:10067000FF920F931F93CF93DF93EC01F62E642F1D
:100680008C810E947D018D818F3F19F060E00E9476
:100690007D010F2D10E08F8584FF25C06E0187E05E
:1006A000C80ED11CF12CE12CB8010E2C02C075959E
:1006B00067950A94E2F76170F60181916F010E94DB
:1006C0007D01FFEFEF1AFF0A88E0E816F10461F7F9
:1006D000CE01DF91CF911F910F91FF90EF90DF90AE
:1006E000CF900C94F202B80184E0759567958A95D5
:1006F000E1F7CE010E9408036F2DCE01DF91CF916B
:100700001F910F91FF90EF90DF90CF900C94080312
:1007100040E0682F85E292E00C943503CF93DF939D
:10072000613029F090913402986090933402609384
:1007300038021092390290E490933A0280933B027F
:10074000805C80933C0261E0809129020E94AB01B1
:1007500080912A028F3F19F061E00E94AB0161E0B5
:1007600080912B020E94AB01C5E2D2E09E0125528E
:1007700032408091340284FD0BC084E090E02196E9
:100780002817390744F461E08E810E94AB01EECF57
:1007900088E090E0F4CF8BE39DE00197F1F760E013
:1007A000809129020E947D0160E080912B020E94CD
:1007B0007D0180912A028F3F19F060E00E947D0147
:1007C0008091340284FD39C063E085E292E00E94AA
:1007D0000803CBE4D6E4CE010197F1F763E085E2AC
:1007E00092E00E9408032197F1F763E085E292E02E
:1007F0000E94080383E592E00197F1F762E085E249
:1008000092E00E9408038091340280620E94880373
:1008100084E0809335028CE00E94880381E00E948E
:1008200088038BE39FE10197F1F782E08093360222
:1008300086E0DF91CF910C94880380620E94880348
:100840008BE496E40197F1F78091340280620E9474
:10085000880383E592E00197F1F78091340280628A
:100860000E948803D0CF90913802891710F08FEF43
:10087000890FE82FF0E0EB5DFD4F848980680C94D0
:100880008803CF93DF9381E00E9488038BE39FE18D
:100890000197F1F780E00E9433048EE291E00E941C
:1008A000E50210927D0110927C01C0917C01D091F3
:1008B0007D01C43BD1055CF4CE010E948C000E94F6
:1008C0000C022196D0937D01C0937C01EECF84EB86
:1008D00090E090937D0180937C01C0917C01D09148
:1008E0007D011C161D065CF4CE010E948C000E9446
:1008F0000C022197D0937D01C0937C01EECF0E9422
:100900004102609378017093790180937A0190930A
:100910007B01809184019091850181309105B9F12D
:100920002CF4892BE9F0DF91CF9108958230910565
:1009300009F449C00397B9F781E00E9433048AE5BE
:1009400091E00E94E5028091780190917901A09157
:100950007A01B0917B01805E9044AD4FBF4F2AC0B9
:1009600081E00E94330484E391E00E94E50282E08A
:100970000E94330486E491E00E94E50283E00E9435
:10098000330487E591E0DF91CF910C94E50281E09B
:100990000E94330487E391E00E94E5028091780190
:1009A00090917901A0917A01B0917B01805A954193
:1009B000AF4FBF4F8093800190938101A09382013C
:1009C000B0938301B0CF81E00E94330489E691E0C7
:1009D0000E94E5028091780190917901A0917A01BD
:1009E000B0917B0180549B42AE4FBF4FE3CF41E0BB
:1009F0000E94350381E090E008951F920F920FB698
:100A00000F9211242F933F938F939F93AF93BF9394
:100A10008091870190918801A0918901B0918A010C
:100A20003091860123E0230F2D3758F50196A11D43
:100A3000B11D209386018093870190938801A09334
:100A40008901B0938A0180918B0190918C01A091D2
:100A50008D01B0918E010196A11DB11D80938B0176
:100A600090938C01A0938D01B0938E01BF91AF91B3
:100A70009F918F913F912F910F900FBE0F901F90DC
:100A8000189526E8230F0296A11DB11DD2CF1F9203
:100A90000F920FB60F9211242F933F934F935F93B2
:100AA0006F937F938F939F93AF93BF93CF93DF9376
:100AB000EF93FF9380917F01C0917E01D0E087FF8B
:100AC00024C0109285001092840080917F018F5F76
:100AD00080937F0180917F01082E000C990B8C1769
:100AE0009D0724F480917F018C30C4F180918400B3
:100AF00090918500049680349C4908F47AC08091D6
:100B0000840090918500049676C080917F01082E24
:100B1000000C990B8C179D07C4F6E0917F018E2F76
:100B2000EE0F990BFC01EE0FFF1FE80FF91FE250CB
:100B3000FE4F808186FFC9CFE0917F018E2FEE0F9F
:100B4000990BFC01EE0FFF1FE80FF91FE250FE4F5B
:100B5000808160E08F730E947D01B7CF2091840077
:100B600030918500E0917F018E2FEE0F990BFC01F3
:100B7000EE0FFF1FE80FF91FE250FE4F81819281B7
:100B8000820F931F9093890080938800E0917F01EA
:100B90008E2FEE0F990BFC01EE0FFF1FE80FF91FD0
:100BA000E250FE4F808186FF11C0E0917F018E2FC1
:100BB000EE0F990BFC01EE0FFF1FE80FF91FE2503B
:100BC000FE4F808161E08F730E947D01FF91EF9164
:100BD000DF91CF91BF91AF919F918F917F916F9155
:100BE0005F914F913F912F910F900FBE0F901F90EB
:100BF000189580E49CE990938900809388008FEF9A
:100C000080937F01E3CF789484B5826084BD84B5FE
:100C1000816084BD85B5826085BD85B5816085BDF7
:100C200080916E00816080936E00109281008091AF
:100C30008100826080938100809181008160809337
:100C40008100809180008160809380008091B1005C
:100C500084608093B1008091B00081608093B00087
:100C600080917A00846080937A0080917A0082601B
:100C700080937A0080917A00816080937A008091DD
:100C80007A00806880937A001092C10080912202DD
:100C90008C3008F051C061E083E00E94AB0180918C
:100CA0002202282F30E0F901EE0FFF1FE20FF31FA1
:100CB000E250FE4F9081907C9360908310922302CB
:100CC000109224022CE0622F0E940709829FB0013B
:100CD000112430E020E0AB01420F531FFA01EE0F68
:100CE000FF1FE40FF51FE250FE4F908196FD16C0E6
:100CF0002F5F3F4F2C30310571F781110FC01092DB
:100D0000800082E080938100109285001092840020
:100D1000B19A80916F00826080936F00E09122020F
:100D20008E2F90E0FC01EE0FFF1FE80FF91FE2503D
:100D3000FE4F80818064808390E080E00E948C0080
:100D400064E084E10E948E030E944104812C912C76
:100D50005401839466246A94762C63E0262E312C09
:100D600021E02093FB010E9441020091EB011091D0
:100D7000EC012091ED013091EE01AB01BC01401B73
:100D8000510B620B730B8091F7019091F801B0E069
:100D9000A0E084179507A607B70708F023C1C0E0B5
:100DA0008091F501C81760F4E091F101F091F20132
:100DB000EC0FF11D62E080810E94AB01CF5FF0CFAC
:100DC000512C8091F601581608F05FC0052D10E0F7
:100DD000E091F301F091F401E00FF11F61E08081F7
:100DE0000E94AB01E091F301F091F401E00FF11FDB
:100DF00060E080810E947D01D501C401052C04C002
:100E0000880F991FAA1FBB1F0A94D2F76C017C019F
:100E1000E094F094412C8091F5014816F8F4C42D2B
:100E2000D0E0E091F101F091F201EC0FFD1F808123
:100E30000E9454012496CC0FDD1FC157DE4F892B31
:100E400041F4888199818C299D29998388834394D1
:100E5000E2CF888199818E219F21F7CFE091F30124
:100E6000F091F401E00FF11F61E080810E947D01AB
:100E70008091F3019091F401080F191F60E0F801CF
:100E800080810E94AB0153949CCF0FE811E0E801F0
:100E90008F8D98A1892B21F41C8E7E8E6D8E19A2C8
:100EA0002696F1E0CB3CDF0799F7F12C8091F50114
:100EB000F81608F053C0E12C8F2D90E0880F991F91
:100EC0009C0129563E4F69012091F601E21608F077
:100ED00043C0F601608171810E2C02C07695679542
:100EE0000A94E2F7F29E900111242E0D311DEFE8D5
:100EF000F1E080E0458D568D2417350709F490C048
:100F00008F5F36968A30B1F760FF24C0EFE8F1E0DA
:100F100090E080E0448D411118C0E091EF01F09124
:100F2000F001E20FF31F408156E0589FF001599FF6
:100F3000F00D1124E157FE4F448F368F258F10A2FC
:100F4000178E61E00E944D0205C0019636968A30E8
:100F5000910501F7E394B8CFF394A8CFF12CF801F1
:100F600081A18111F82E0A5F1F4FC017D107B9F771
:100F70000E9441026093EB017093EC018093ED01BC
:100F80009093EE01FF2071F18091B001882351F11F
:100F90002091AE013091AF012130310519F58091DA
:100FA000AB01811122C08091840190918501892B30
:100FB00089F00E94410200918001109181012091ED
:100FC000820130918301601771078207930710F047
:100FD0000E94410480E090E0892B09F4C1CE0E9478
:100FE0000000BECE1092FB01DECF823389F03CF4CC
:100FF0008133C9F63093850120938401D4CF8333A4
:1010000051F0893381F61092850110928401CBCF83
:1010100022E030E0EFCF3092850120928401C3CFEF
:10102000617090CF109228021092270286E291E020
:1010300090932602809325028EE0809329028FEF01
:1010400080932A028FE080932B0280E180932C0210
:1010500081E180932D0282E180932E0283E18093CF
:101060002F0210923002109231021092320210922E
:1010700033021092340261E080E10E948E031092EC
:1010800091011092950110929401109296018CE1B9
:1010900091E09093900180938F01EBEAF1E0108250
:1010A000148213821582369681E0E73EF807B9F77D
:1010B00084E091E09093F2018093F10180E091E06F
:1010C0009093F4018093F30184E08093F501809381
:1010D000F60188E091E09093F0018093EF018AE0BF
:1010E00090E09093F8018093F70184EF91E0909362
:1010F000FA018093F9011092FD011092FC01109207
:10110000EB011092EC011092ED011092EE011092A1
:10111000FB0180917E018C3098F491E0980F9093C0
:101120007E018093220290E0FC01EE0FFF1FE80F8A
:10113000F91FE250FE4F88EB9BE092838183089574
:101140008FEF809322020895052E97FB1EF40094E2
:101150000E94BB0857FD07D00E94D60807FC03D0A9
:101160004EF40C94BB0850954095309521953F4F17
:101170004F4F5F4F089590958095709561957F4F83
:101180008F4F9F4F08950E94F808A59F900DB49F20
:10119000900DA49F800D911D11240895B7FF0C940C
:1011A000C3080E94C308821B930B0895A1E21A2E64
:1011B000AA1BBB1BFD010DC0AA1FBB1FEE1FFF1FFB
:1011C000A217B307E407F50720F0A21BB30BE40B4B
:1011D000F50B661F771F881F991F1A9469F7609592
:1011E0007095809590959B01AC01BD01CF0108954C
:1011F000A29FB001B39FC001A39F700D811D112458
:10120000911DB29F700D811D1124911D0895991B90
:1012100079E004C0991F961708F0961B881F7A95ED
:10122000C9F780950895EE0FFF1F0590F491E02D0A
:061230000994F894FFCFC1
:101236000D0C0B0A090807063738392F3435362ABC
:101246003132332D43303D2B00000000A902AD02A0
:10125600B10200000000F704B402E202E1026D658B
:101266006E753A00312E2031206D656E69742073DB
:10127600656B616C6900322E2032206D656E697473
:101286002073656B616C00332E2033206D656E69AB
:10129600742073656B616C690032206D656E6974CC
:0812A6002073656B616C6900A7
:00000001FF
