:100000000C9462000C948A000C948A000C948A0070
:100010000C948A000C948A000C948A000C948A0038
:100020000C948A000C948A000C948A000C94470566
:100030000C948A000C948A000C948A000C948A0018
:100040000C94FD040C948A000C948A000C948A0091
:100050000C948A000C948A000C948A000C948A00F8
:100060000C948A000C948A000000000024002700F1
:100070002A0000000000250028002B0000000000DE
:1000800023002600290004040404040404040202DA
:100090000202020203030303030301020408102007
:1000A0004080010204081020010204081020000012
:1000B0000008000201000003040700000000000027
:1000C0000000100811241FBECFEFD8E0DEBFCDBF67
:1000D00011E0A0E0B1E0E2E3F2E102C005900D9290
:1000E000AA36B107D9F722E0AAE6B1E001C01D9215
:1000F000AF32B207E1F710E0C2E6D0E004C02197CA
:10010000FE010E941109C136D107C9F70E940306FA
:100110000C9417090C940000CF92DF92EF92FF929B
:10012000DC01A03282E0B807D4F5A53BB10514F09C
:10013000A4EBB0E04091150228E830E0241B31091F
:1001400047FD3395220F331F220F331F6901330FF1
:10015000EE08FF084091160228E532E0241B310921
:1001600047FD3395220F331F220F331F032E000C40
:10017000440B550B2C193D094E095F09B7FF02C00E
:10018000B0E0A0E00E94CC0824EB30E040E050E07A
:100190000E94A208C20ED31EE41EF51ED601E091F5
:1001A0001402EC3080F52091150288E890E0821B63
:1001B000910927FD9395880F991F880F991FA817FC
:1001C000B90784F02091160288E592E0821B91091C
:1001D00027FD9395880F991F880F991FA817B907B6
:1001E0000CF4CD010297880F991F4FB7F8942E2F6A
:1001F00030E0F901EE0FFF1FE20FF31FE051FE4F59
:10020000928381834FBFFF90EF90DF90CF9008954E
:1002100096E0899FD0011124AF57BE4F90967C93F2
:100220006E935F9791E091969C939197E091EE0188
:10023000F091EF019091ED01992339F0309751F051
:10024000811108C080919D010994309719F05C9646
:100250008C91FACF0895833081F028F4813099F0A1
:100260008230A9F008958730A9F08830C9F0843031
:10027000B1F4809180008F7D03C0809180008F77E2
:1002800080938000089584B58F7784BD089584B5E8
:100290008F7DFBCF8091B0008F778093B000089561
:1002A0008091B0008F7DF9CFCF93DF93282F30E07E
:1002B000F901E255FF4F8491F901E656FF4FD491C1
:1002C000F901EA57FF4FC491CC23A1F081110E949C
:1002D0002B01EC2FF0E0EE0FFF1FE458FF4FA5912C
:1002E000B491EC91ED2381E090E009F480E0DF919E
:1002F000CF91089580E090E0FACF1F93CF93DF93E2
:10030000282F30E0F901E255FF4F8491F901E656BC
:10031000FF4FD491F901EA57FF4FC491CC23A9F0C4
:10032000162F81110E942B01EC2FF0E0EE0FFF1F22
:10033000EE58FF4FA591B4918FB7F894EC9111113D
:1003400008C0D095DE23DC938FBFDF91CF911F9142
:100350000895DE2BF8CFCF93DF9390E0FC01E656B3
:10036000FF4F24918A579F4FFC0184918823C9F045
:1003700090E0880F991FFC01E859FF4FA591B491B7
:10038000FC01EE58FF4FC591D49161110DC09FB78C
:10039000F8948C91209582238C938881282328833C
:1003A0009FBFDF91CF910895623051F49FB7F894C9
:1003B0003C91822F809583238C93E8812E2BEFCF65
:1003C0008FB7F894EC912E2B2C938FBFEACF3FB7C9
:1003D000F89480917D0190917E01A0917F01B09170
:1003E000800126B5A89B05C02F3F19F00196A11DDD
:1003F000B11D3FBFBA2FA92F982F8827BC01CD016F
:10040000620F711D811D911D42E0660F771F881FCD
:10041000991F4A95D1F708958F929F92AF92BF92FC
:10042000CF92DF92EF92FF920E94E7014B015C01B5
:1004300083E0C82ED12CE12CF12C0E94E701681931
:1004400079098A099B09683E734081059105A8F3E3
:1004500021E0C21AD108E108F10888EE880E83E095
:10046000981EA11CB11CC114D104E104F10429F7A8
:10047000FF90EF90DF90CF90BF90AF909F908F90C4
:1004800008952FB7F8946091790170917A01809165
:100490007B0190917C012FBF08950F931F93CF9301
:1004A000DF93C82FD62F86E0C89FF0011124EF57A5
:1004B000FE4F11A2878D90A181309105F1F058F087
:1004C00082309105F1F1039709F440C0DF91CF919B
:1004D0001F910F9108956623C9F361E070E08C2F9E
:1004E0000E9408010E9441026093D9017093DA01D1
:1004F0008093DB019093DC01E9CF0E9441020091DF
:10050000D9011091DA012091DB013091DC01AB01BE
:10051000BC01401B510B620B730B8091EB0190915E
:10052000EC01B0E0A0E084179507A607B70748F4F0
:1005300062E070E08C2FDF91CF911F910F910C94AE
:10054000080163E070E0D111C1CFF4CF70E060E04A
:10055000F1CF862F642F0C94AB01862F642F0C945F
:100560007D01862F0C945401AF92BF92CF92DF92FF
:10057000EF92FF920F931F93CF93DF936C017B0158
:100580008B01040F151FEB015E01AE18BF08C017E9
:10059000D10759F06991D601ED91FC910190F0815C
:1005A000E02DC6010995892B79F7C501DF91CF911F
:1005B0001F910F91FF90EF90DF90CF90BF90AF9081
:1005C0000895089590E080E00895FC0101900020D6
:1005D000E9F73197AF01481B590BBC0187E192E065
:1005E0000C94B402CF93DF93EC0160E08E810E9403
:1005F0007D0161E08E810E947D0160E08E810E941C
:100600007D018BE891E00197F1F7DF91CF9108959B
:10061000CF92DF92EF92FF920F931F93CF93DF93CE
:100620006C017C0187E0E80EF11CD0E0C0E0062FF1
:1006300010E0B8010C2E02C0759567950A94E2F798
:100640006170F70181917F010E947D012196C43084
:10065000D10579F7C601DF91CF911F910F91FF90DE
:10066000EF90DF90CF900C94F202CF92DF92EF9256
:10067000FF920F931F93CF93DF93EC01F62E642F1D
:100680008C810E947D018D818F3F19F060E00E9476
:100690007D010F2D10E08F8584FF25C06E0187E05E
:1006A000C80ED11CF12CE12CB8010E2C02C075959E
:1006B00067950A94E2F76170F60181916F010E94DB
:1006C0007D01FFEFEF1AFF0A88E0E816F10461F7F9
:1006D000CE01DF91CF911F910F91FF90EF90DF90AE
:1006E000CF900C94F202B80184E0759567958A95D5
:1006F000E1F7CE010E9408036F2DCE01DF91CF916B
:100700001F910F91FF90EF90DF90CF900C94080312
:1007100040E0682F87E192E00C943503CF93DF939C
:10072000613029F0909126029860909326026093A0
:100730002A0210922B0290E490932C0280932D02B7
:10074000805C80932E0261E080911B020E94AB01CD
:1007500080911C028F3F19F061E00E94AB0161E0C3
:1007600080911D020E94AB01C7E1D2E09E0127519A
:1007700032408091260284FD0BC084E090E02196F7
:100780002817390744F461E08E810E94AB01EECF57
:1007900088E090E0F4CF8BE39DE00197F1F760E013
:1007A00080911B020E947D0160E080911D020E94E9
:1007B0007D0180911C028F3F19F060E00E947D0155
:1007C0008091260284FD39C063E087E192E00E94B7
:1007D0000803CBE4D6E4CE010197F1F763E087E1AB
:1007E00092E00E9408032197F1F763E087E192E02D
:1007F0000E94080383E592E00197F1F762E087E148
:1008000092E00E9408038091260280620E94880381
:1008100084E0809327028CE00E94880381E00E949C
:1008200088038BE39FE10197F1F782E08093280230
:1008300086E0DF91CF910C94880380620E94880348
:100840008BE496E40197F1F78091260280620E9482
:10085000880383E592E00197F1F780912602806298
:100860000E948803D0CF90912A02891710F08FEF51
:10087000890FE82FF0E0E95EFD4F848980680C94D1
:100880008803CF93DF9381E00E9488038BE39FE18D
:100890000197F1F780E00E9433048EE291E00E941C
:1008A000E50210926F0110926E01C0916E01D0911D
:1008B0006F01C43BD1055CF4CE010E948C000E9404
:1008C0000C022196D0936F01C0936E01EECF84EBA2
:1008D00090E090936F0180936E01C0916E01D09172
:1008E0006F011C161D065CF4CE010E948C000E9454
:1008F0000C022197D0936F01C0936E01EECF0E943E
:10090000410260936A0170936B0180936C01909334
:100910006D01809176019091770181309105B9F157
:100920002CF4892BE9F0DF91CF9108958230910565
:1009300009F449C00397B9F781E00E9433048BE5BD
:1009400091E00E94E50280916A0190916B01A09173
:100950006C01B0916D01805E9044AD4FBF4F2AC0D5
:1009600081E00E94330484E391E00E94E50282E08A
:100970000E94330486E491E00E94E50283E00E9435
:10098000330488E591E0DF91CF910C94E50281E09A
:100990000E94330487E391E00E94E50280916A019E
:1009A00090916B01A0916C01B0916D01805A9541BD
:1009B000AF4FBF4F8093720190937301A093740166
:1009C000B0937501B0CF81E00E94330489E491E0D7
:1009D0000E94E50280916A0190916B01A0916C01E7
:1009E000B0916D0180549B42AE4FBF4FE3CF41E0C9
:1009F0000E94350381E090E008951F920F920FB698
:100A00000F9211242F933F938F939F93AF93BF9394
:100A10008091790190917A01A0917B01B0917C0144
:100A20003091780123E0230F2D3758F50196A11D51
:100A3000B11D209378018093790190937A01A0935E
:100A40007B01B0937C0180917D0190917E01A0910A
:100A50007F01B09180010196A11DB11D80937D01A0
:100A600090937E01A0937F01B0938001BF91AF91DD
:100A70009F918F913F912F910F900FBE0F901F90DC
:100A8000189526E8230F0296A11DB11DD2CF1F9203
:100A90000F920FB60F9211242F933F934F935F93B2
:100AA0006F937F938F939F93AF93BF93CF93DF9376
:100AB000EF93FF9380917101C0917001D0E087FFA7
:100AC00024C01092850010928400809171018F5F84
:100AD0008093710180917101082E000C990B8C1785
:100AE0009D0724F4809171018C30C4F180918400C1
:100AF00090918500049680349C4908F47AC08091D6
:100B0000840090918500049676C080917101082E32
:100B1000000C990B8C179D07C4F6E09171018E2F84
:100B2000EE0F990BFC01EE0FFF1FE80FF91FE051CC
:100B3000FE4F808186FFC9CFE09171018E2FEE0FAD
:100B4000990BFC01EE0FFF1FE80FF91FE051FE4F5C
:100B5000808160E08F730E947D01B7CF2091840077
:100B600030918500E09171018E2FEE0F990BFC0101
:100B7000EE0FFF1FE80FF91FE051FE4F81819281B8
:100B8000820F931F9093890080938800E0917101F8
:100B90008E2FEE0F990BFC01EE0FFF1FE80FF91FD0
:100BA000E051FE4F808186FF11C0E09171018E2FD0
:100BB000EE0F990BFC01EE0FFF1FE80FF91FE0513C
:100BC000FE4F808161E08F730E947D01FF91EF9164
:100BD000DF91CF91BF91AF919F918F917F916F9155
:100BE0005F914F913F912F910F900FBE0F901F90EB
:100BF000189580E49CE990938900809388008FEF9A
:100C000080937101E3CF789484B5826084BD84B50C
:100C1000816084BD85B5826085BD85B5816085BDF7
:100C200080916E00816080936E00109281008091AF
:100C30008100826080938100809181008160809337
:100C40008100809180008160809380008091B1005C
:100C500084608093B1008091B00081608093B00087
:100C600080917A00846080937A0080917A0082601B
:100C700080937A0080917A00816080937A008091DD
:100C80007A00806880937A001092C10080911402EB
:100C90008C3008F051C061E083E00E94AB0180918C
:100CA0001402282F30E0F901EE0FFF1FE20FF31FAF
:100CB000E051FE4F9081907C9360908310921502DA
:100CC000109216022CE0622F0E940509829FB0014B
:100CD000112430E020E0AB01420F531FFA01EE0F68
:100CE000FF1FE40FF51FE051FE4F908196FD16C0E7
:100CF0002F5F3F4F2C30310571F781110FC01092DB
:100D0000800082E080938100109285001092840020
:100D1000B19A80916F00826080936F00E09114021D
:100D20008E2F90E0FC01EE0FFF1FE80FF91FE0513E
:100D3000FE4F80818064808364E084E10E948E03A2
:100D40000E944104812C912C5401839466246A945E
:100D5000762C63E0262E312C21E02093ED010E94B9
:100D600041020091DD011091DE012091DF013091FF
:100D7000E001AB01BC01401B510B620B730B809176
:100D8000E9019091EA01B0E0A0E084179507A60779
:100D9000B70708F023C1C0E08091E701C81760F4ED
:100DA000E091E301F091E401EC0FF11D62E080813C
:100DB0000E94AB01CF5FF0CF512C8091E801581613
:100DC00008F05FC0052D10E0E091E501F091E6012B
:100DD000E00FF11F61E080810E94AB01E091E5012D
:100DE000F091E601E00FF11F60E080810E947D013B
:100DF000D501C401052C04C0880F991FAA1FBB1F71
:100E00000A94D2F76C017C01E094F094412C80911B
:100E1000E7014816F8F4C42DD0E0E091E301F09129
:100E2000E401EC0FFD1F80810E9454012496CC0F39
:100E3000DD1FCF57DE4F892B41F4888199818C29A2
:100E40009D29998388834394E2CF888199818E215B
:100E50009F21F7CFE091E501F091E601E00FF11F4E
:100E600061E080810E947D018091E5019091E60121
:100E7000080F191F60E0F80180810E94AB015394B4
:100E80009CCF01E811E0E8018F8D98A1892B21F416
:100E90001C8E7E8E6D8E19A22696F1E0CD3BDF076B
:100EA00099F7F12C8091E701F81608F053C0E12C76
:100EB0008F2D90E0880F991F9C0127573E4F6901A5
:100EC0002091E801E21608F043C0F60160817181CB
:100ED0000E2C02C0769567950A94E2F7F29E900177
:100EE00011242E0D311DE1E8F1E080E0458D568D95
:100EF0002417350709F492C08F5F36968A30B1F710
:100F000060FF24C0E1E8F1E090E080E0448D411111
:100F100018C0E091E101F091E201E20FF31F40817E
:100F200056E0589FF001599FF00D1124EF57FE4FE6
:100F3000448F368F258F10A2178E61E00E944D02DC
:100F400005C0019636968A30910501F7E394B8CF33
:100F5000F394A8CFF12CF80181A18111F82E0A5F3A
:100F60001F4FC017D107B9F70E9441026093DD01FE
:100F70007093DE018093DF019093E001FF2071F117
:100F80008091A201882351F12091A0013091A1010B
:100F90002130310519F580919D01811122C0809188
:100FA000760190917701892B89F00E94410200918E
:100FB00072011091730120917401309175016017D5
:100FC00071078207930710F00E94410480E090E0CF
:100FD000892B09F4C1CE0E940000BECE1092ED0113
:100FE000DECF823399F04CF48133C9F63093770128
:100FF000209376010E944104D2CF833351F089338C
:1010000071F61092770110927601F4CF22E030E071
:10101000EDCF3092770120927601ECCF61708ECFC8
:1010200010921A021092190286E291E0909318022F
:10103000809317028EE080931B028FEF80931C0237
:101040008FE080931D0280E180931E0281E18093F6
:101050001F0282E18093200283E18093210210929B
:101060002202109223021092240210922502109262
:10107000260261E080E10E948E03109283011092AB
:10108000870110928601109288018CE191E0909383
:10109000820180938101EDE9F1E0108214821382D4
:1010A0001582369681E0E93DF807B9F784E091E0D2
:1010B0009093E4018093E30180E091E09093E60156
:1010C0008093E50184E08093E7018093E80188E064
:1010D00091E09093E2018093E1018AE090E09093A7
:1010E000EA018093E90184EF91E09093EC01809311
:1010F000EB011092EF011092EE011092DD011092BF
:10110000DE011092DF011092E0011092ED0180915A
:1011100070018C3098F491E0980F90937001809357
:10112000140290E0FC01EE0FFF1FE80FF91FE051E1
:10113000FE4F88EB9BE09283818308958FEF80932D
:1011400014020895052E97FB1EF400940E94B9081E
:1011500057FD07D00E94D40807FC03D04EF40C942E
:10116000B90850954095309521953F4F4F4F5F4FAF
:10117000089590958095709561957F4F8F4F9F4F03
:1011800008950E94F608A59F900DB49F900DA49F0E
:10119000800D911D11240895B7FF0C94C1080E9481
:1011A000C108821B930B0895A1E21A2EAA1BBB1B38
:1011B000FD010DC0AA1FBB1FEE1FFF1FA217B30723
:1011C000E407F50720F0A21BB30BE40BF50B661F39
:1011D000771F881F991F1A9469F7609570958095FD
:1011E00090959B01AC01BD01CF010895A29FB00174
:1011F000B39FC001A39F700D811D1124911DB29F4B
:10120000700D811D1124911D0895991B79E004C072
:10121000991F961708F0961B881F7A95C9F7809535
:101220000895EE0FFF1F0590F491E02D0994F894B6
:02123000FFCFEE
:10123200090807060D0C0B0A3738392F3435362AC0
:101242003132332D43303D2B00000000A902AD02A4
:10125200B10200000000F704B402E202E1026D658F
:101262006E753A00312E2031206D656E69742073DF
:10127200656B616C6900322E2032206D656E697477
:101282002073656B616C6900332E2033206D656EAF
:0A12920069742073656B616C6900DC
:00000001FF